:100000000C94D21E0C94F31E0C94F31E0C94F31E4D
:100010000C94F31E0C94F31E0C94F31E0C94F31E1C
:100020000C94F31E0C94F31E0C94F31E0C94F31E0C
:100030000C94F31E0C94F31E0C94F31E0C94F31EFC
:100040000C94F31E0C9411210C94F31E0C94F31ECB
:100050000C94F31E0C94F31E0C94F31E0C94F31EDC
:100060000C94F31E0C94F31E0C94F31E0C94F31ECC
:100070000C94F31E0C94F31E0C94F31E0C94F31EBC
:100080000C9477210C94F31E0C94F31E0C94F31E25
:100090000C94F31E0C94F31E0C94F31E0C94F31E9C
:1000A0000C94F31E0C94F31E0C94F31E0C94F31E8C
:1000B0000C94F31E0C94F31E0C94F31E0C94F31E7C
:1000C0000C94F31E0C94F31E0C94F31E0C94F31E6C
:1000D0000C94F31E0C94F31E0C94F31E0C94F31E5C
:1000E0000C94F31E413A413A163A413A1A3A273AE9
:1000F000273A273A343A343A000000000000000062
:1001000000000000000000000000000000000000EF
:100110000000F0030C0C02103211312201223122B6
:10012000321102100C0CF0030000F003FC0FFE1F54
:10013000CE1ECF3DFF3DCF3DCE1EFE1FFC0FF00378
:1001400000000000F000F801F803F007E00FF007EE
:10015000F803F801F0000000000000008000C0017A
:10016000E003F007F80FF007E003C0018000000093
:1001700000008003C007C007B813FC1BFC1FFC1B5A
:10018000B813C007C0078003000000008003C00749
:10019000E017F01BFC1FF01BE017C00780030000F6
:1001A00000000000000000008001C003C0038001C7
:1001B0000000000000000000FFFFFFFFFFFFFFFF47
:1001C0007FFE3FFC3FFC7FFEFFFFFFFFFFFFFFFFC7
:1001D000000000000000C0032004100810082004E4
:1001E000C003000000000000FFFFFFFFFFFF3FFC17
:1001F000DFFBEFF7EFF7DFFB3FFCFFFFFFFFFFFF4A
:1002000000008003C007600C20082008600CC807AD
:10021000A803180078000000000000000000700033
:10022000F8088C09043F043F8C09F80870000000AE
:10023000000000000000000C001E001EFF0F0E005A
:100240007C0038000000000000000006000F000FD6
:10025000FF0733006630CC789879F03F000000004B
:1002600000008000C809F0073006180C1E3C180C6E
:100270003006F007C8098000000000000000FC1FE5
:10028000F80FF007E003C00180000000000000004C
:100290000000000000008000C001E003F007F80F3C
:1002A000FC1F00000000000000000000000010041F
:1002B000180C1C1CFE3F1C1C180C10040000000035
:1002C000000000000000FE37FE3700000000FE378F
:1002D000FE37000000000000000038007C00C6006F
:1002E0008200FE3FFE3F0200FE3FFE3F0200000094
:1002F00000000000DC08FE19221122112211221137
:10030000E61FC40E000000000000000000000038DE
:100310000038003800380038003800380038000055
:1003200000000000000008440C4C0E5CFF7F0E5CD7
:100330000C4C084400000000000000000000100009
:1003400018001C00FE3F1C001800100000000000F8
:100350000000000000000004000C001CFE3F001C18
:10036000000C00040000000000000000800080007D
:10037000800080008000F007E003C00180000000E2
:10038000000000008000C001E003F0078000800052
:1003900080008000800000000000003F002000205E
:1003A000002000200020002000200020002000006D
:1003B00000008000C001E003F007800080008000A2
:1003C000F007E003C0018000000000040006000701
:1003D0008007C007E007C007800700070006000489
:1003E000000020006000E000E001E003E007E0031F
:1003F000E001E000600020000000000000000000BC
:1004000000000000000000000000000000000000EC
:1004100000000000000000007C00FF33FF337C0080
:1004200000000000000000000000000000003C0090
:100430003C00000000003C003C0000000000000008
:1004400000000002101E901FF0037E021E1E901F6F
:10045000F0037E021E001000000000007804FC0C77
:10046000CC0CFF3FFF3FCC0CCC0F880700000000F6
:10047000000000303838381C380E00078003C001F7
:10048000E038703838381C0000000000001FB83F0A
:10049000FC31C621E2373E1E1C1C00360022000043
:1004A000000000000000000027003F001F000000C7
:1004B0000000000000000000000000000000F00349
:1004C000FC0FFE1F07380120012000000000000083
:1004D000000000000000012001200738FE1FFC0F73
:1004E000F00300000000000000000000980CB80EAF
:1004F000E003F80FF80FE003B80E980C00000000BE
:1005000000000000800180018001F00FF00F8001E9
:1005100080018001000000000000000000000000D9
:1005200000B800F8007800000000000000000000A3
:1005300000000000800180018001800180018001B5
:1005400080018001000000000000000000000000A9
:1005500000380038003800000000000000000000F3
:1005600000000018001C000E00078003C001E0001E
:10057000700038001C000E000000F807FE1F06186F
:10058000033003300330033003300618FE1FF80732
:100590000000000000000C300C300E30FF3FFF3F29
:1005A000003000300030000000001C301E38073CD6
:1005B000033E03378333C331E33077303E301C30A2
:1005C00000000C0C0E1C0738C330C330C330C330DE
:1005D000C330E7397E1F3C0E0000C003E003700308
:1005E00038031C030E030703FF3FFF3F0003000314
:1005F00000003F0C7F1C633863306330633063302E
:100600006330E338C31F830F0000C00FF01FF839B9
:10061000DC30CE30C730C330C330C339801F000F49
:1006200000000300030003000330033C030FC30377
:10063000F3003F000F0003000000000FBC1FFE3955
:10064000E730C330C330C330E730FE39BC1F000F82
:1006500000003C007E00E730C330C330C338C31C09
:10066000C30EE707FE03FC000000000000000000CE
:10067000701C701C701C00000000000000000000D6
:100680000000000000000000709C70FC707C000006
:10069000000000000000000000000000C000E001B9
:1006A000F00338071C0E0E1C073803300000000052
:1006B00000000000600660066006600660066006D6
:1006C0006006600660060000000000000330073886
:1006D0000E1C1C0E3807F003E001C00000000000F3
:1006E00000001C001E00070003008337C337E3002F
:1006F00077003E001C0000000000F80FFE1F0718E6
:10070000F333FB371B36FB37FB370736FE03F801A5
:1007100000000038003FE007FC061F061F06FC062D
:10072000E007003F003800000000FF3FFF3FC330FC
:10073000C330C330C330E730FE39BC1F000F0000A8
:100740000000F003FC0F0E1C0738033003300330A9
:1007500007380E1C0C0C00000000FF3FFF3F033069
:1007600003300330033007380E1CFC0FF003000089
:100770000000FF3FFF3FC330C330C330C330C3303E
:10078000C3300330033000000000FF3FFF3FC300D1
:10079000C300C300C300C300C30003000300000084
:1007A0000000F003FC0F0E1C07380330C330C330C9
:1007B000C330C73FC63F00000000FF3FFF3FC000FF
:1007C000C000C000C000C000C000FF3FFF3F0000ED
:1007D00000000000000003300330FF3FFF3F033004
:1007E00003300000000000000000000E001E003872
:1007F00000300030003000300038FF1FFF070000DD
:100800000000FF3FFF3FC000E001F00338071C0E6F
:100810000E1C0738033000000000FF3FFF3F003090
:100820000030003000300030003000300030000078
:100830000000FF3FFF3F1E007800E001E00178006C
:100840001E00FF3FFF3F00000000FF3FFF3F0E0084
:100850003800F000C0030007001CFF3FFF3F00000E
:100860000000F003FC0F0E1C07380330033007387C
:100870000E1CFC0FF00300000000FF3FFF3F830150
:100880008301830183018301C701FE007C00000016
:100890000000F003FC0F0E1C073803300336073E40
:1008A0000E1CFC3FF03300000000FF3FFF3F8301C0
:1008B000830183038307830FC71DFE387C3000004C
:1008C00000003C0C7E1CE738C330C330C330C3305B
:1008D000C7398E1F0C0F000000000000030003004A
:1008E0000300FF3FFF3F0300030003000000000080
:1008F0000000FF07FF1F00380030003000300030DC
:100900000038FF1FFF070000000007003F00F8014C
:10091000C00F003E003EC00FF8013F00070000007E
:100920000000FF3FFF3F001C00068003800300061D
:10093000001CFF3FFF3F0000000003300F3C1C0E77
:100940003003E001E00130031C0E0F3C03300000D7
:10095000000003000F003C00F000C03FC03FF0006B
:100960003C000F000300000000000330033C033E86
:100970000333C331E33033301F300F300330000016
:10098000000000000000FF3FFF3F03300330033052
:10099000033000000000000000000E001C003800C2
:1009A0007000E000C00180030007000E001C00186A
:1009B0000000000000000330033003300330FF3F2D
:1009C000FF3F0000000000000000600070003800E1
:1009D0001C000E0007000E001C00380070006000B4
:1009E000000000C000C000C000C000C000C000C0C7
:1009F00000C000C000C000C00000000000000000F7
:100A000000003E007E004E000000000000000000DC
:100A10000000001C403E603360336033603360335D
:100A20006033E03FC03F00000000FF3FFF3FC030A9
:100A30006030603060306030E038C01F800F0000F0
:100A40000000800FC01FE0386030603060306030E0
:100A50006030C018800800000000800FC01FE03820
:100A6000603060306030E030C030FF3FFF3F00005A
:100A70000000800FC01FE03B6033603360336033A1
:100A80006033C013800100000000C000C000FC3FC4
:100A9000FE3FC700C300C3000300000000000000C9
:100AA00000008003C0C7E0CE60CC60CC60CC60CCDE
:100AB00060E6E07FE03F00000000FF3FFF3FC00036
:100AC000600060006000E000C03F803F0000000068
:100AD00000000000000000306030EC3FEC3F0030D0
:100AE0000030000000000000000000000000006076
:100AF00000E000C060C0ECFFEC7F000000000000E0
:100B000000000000FF3FFF3F00038007C00FE01C14
:100B100060380030000000000000000000000030DD
:100B20000330FF3FFF3F00300030000000000000B6
:100B30000000E03FC03FE000E000C03FC03FE000F9
:100B4000E000C03F803F000000000000E03FE03FC9
:100B50006000600060006000E000C03F803F000077
:100B60000000800FC01FE0386030603060306030BF
:100B7000E038C01F800F00000000E0FFE0FF600CC5
:100B80006018601860186018E01CC00F8007000033
:100B900000008007C00FE01C601860186018601823
:100BA000600CE0FFE0FF000000000000E03FE03FDD
:100BB000C0006000600060006000E000C000000055
:100BC0000000C011E0336033603360336033603F56
:100BD000401E000000000000000060006000FE1FDA
:100BE000FE3F6030603060300030000000000000E8
:100BF0000000E00FE01F003800300030003000300F
:100C00000018E03FE03F000000006000E0018007C6
:100C1000001E00380038001E8007E0016000000060
:100C20000000E007E01F0038001CE00FE00F001C90
:100C30000038E01FE007000000006030E038C01D11
:100C4000800F0007800FC01DE038603000000000FA
:100C5000000000006000E08180E7007E001E800749
:100C6000E001600000000000000060306038603C7F
:100C700060366033E031E03060302030000000004A
:100C8000000000008000C001FC1F7E3F0770036071
:100C9000036003600000000000000000000000008E
:100CA0000000FF3FFF3F00000000000000000000C8
:100CB0000000000003600360036007707E3FFC1FBC
:100CC000C0018000000000000000100018000C00AF
:100CD00004000C001800100018000C0004000000B4
:100CE0000000000F800FC00C600C300C300C600C4A
:100CF000C00C800F000F000055550000AAAA00008C
:100D000055550000AAAA000055550000AAAA0000E7
:100D1000AAAA5555AAAA5555AAAA5555AAAA5555DB
:100D2000AAAA5555AAAA5555AAAAFFFF5555FFFFCD
:100D3000AAAAFFFF5555FFFFAAAAFFFF5555FFFFBF
:100D400000000000000000000000FFFFFFFF0000A7
:100D5000000000000000000080018001800180018F
:100D60008001FFFFFFFF0000000000000000000006
:100D7000C006C006C006C006C006FFFFFFFF000099
:100D8000000000000000000080018001FFFFFFFF65
:100D90000000FFFFFFFF0000000000000000000057
:100DA0008001800180FF80FF800180FF80FF0000C4
:100DB0000000000000000000C006C006C006C0061B
:100DC000C006C0FFC0FF00000000000000000000DF
:100DD000C006C006FFFEFFFE0000FFFFFFFF000091
:100DE000000000000000000000000000FFFFFFFF07
:100DF0000000FFFFFFFF00000000000000000000F7
:100E0000C006C006C0FEC0FEC000C0FFC0FF00009C
:100E10000000000000000000C006C006FF06FF063C
:100E20000006FF07FF0700000000000000000000B0
:100E300080018001FF01FF018001FF01FF0100002F
:100E40000000000000000000C006C006C006C0068A
:100E5000C006FF07FF0700000000000000000000C0
:100E60008001800180018001800180FF80FF0000FF
:100E70000000000000000000000000000000000072
:100E80000000FF01FF0180018001800180018001DD
:100E900080018001800180018001FF01FF0180014C
:100EA000800180018001800180018001800180013A
:100EB000800180FF80FF800180018001800180012E
:100EC00000000000000000000000FFFFFFFF8001A5
:100ED000800180018001800180018001800180010A
:100EE00080018001800180018001800180018001FA
:100EF00080018001800180018001FFFFFFFF8001F0
:100F000080018001800180010000000000000000DD
:100F10000000FFFFFFFFC006C006C006C006C006F7
:100F200000000000FFFFFFFF0000FFFFFFFF800148
:100F3000800180018001800100000000FF07FF07A1
:100F40000006FF06FF06C006C006C006C006C006B3
:100F500000000000C0FFC0FFC000C0FEC0FEC00611
:100F6000C006C006C006C006C006C006FF06FF06D3
:100F70000006FF06FF06C006C006C006C006C00683
:100F8000C006C006C0FEC0FEC000C0FEC0FEC00657
:100F9000C006C006C006C00600000000FFFFFFFF3D
:100FA0000000FFFEFFFEC006C006C006C006C00669
:100FB000C006C006C006C006C006C006C006C00601
:100FC000C006C006C006C006C006C006FFFEFFFE83
:100FD0000000FFFEFFFEC006C006C006C006C00639
:100FE000C006C006C006C006C006FF06FF06C00653
:100FF000C006C006C006C00680018001FF01FF01D7
:101000008001FF01FF0180018001800180018001DA
:10101000C006C006C006C006C006C0FEC0FEC006B0
:10102000C006C006C006C0068001800180FF80FFA8
:10103000800180FF80FF80018001800180018001AC
:1010400000000000FF01FF018001FF01FF0180019E
:10105000800180018001800100000000000000008C
:101060000000FF07FF07C006C006C006C006C00696
:1010700000000000000000000000C0FFC0FFC0062C
:10108000C006C006C006C0060000000080FF80FF4A
:10109000800180FF80FF800180018001800180014C
:1010A00080018001FFFFFFFF0000FFFFFFFF8001C5
:1010B00080018001800180010000F83FF83F9B31F2
:1010C0009B31983198319B319B311830183000009A
:1010D000C006C006C006C006C006FFFEFFFEC00672
:1010E000C006C006C006C0068001800180018001E4
:1010F0008001FF01FF01000000000000000000006F
:101100000000000000000000000080FF80FF800160
:101110008001800180018001FFFFFFFFFFFFFFFFD3
:10112000FFFFFFFFFFFFFFFFFFFFFFFFFFFFFFFFCF
:1011300000FF00FF00FF00FF00FF00FF00FF00FFB7
:1011400000FF00FF00FF00FFFFFFFFFFFFFFFFFFAB
:10115000FFFFFFFF00000000000000000000000093
:10116000000000000000000000000000FFFFFFFF83
:10117000FFFFFFFFFFFFFFFFFF00FF00FF00FF007B
:10118000FF00FF00FF00FF00FF00FF00FF00FF0067
:1011900000000000F00008010802100420081004FC
:1011A00008020801F00000000000E001F003F00771
:1011B000F007E807E407E407E407E407E803F001C1
:1011C0000000E00130023004300428042404240428
:1011D000240424042802F0010000000000000000A4
:1011E000800070000800F80000000000000000000F
:1011F0000000800080008000A0069C088208BE3E9F
:101200008000800080000000000000006000E88195
:1012100088E7107E101E8807E801600000000000CB
:101220000000000000001E003F00330033003F00BC
:101230001E000000000000000000800FC01FEC3303
:101240006C33603360336C336C33C0138003000045
:10125000000000000000C003E007E007E007E0072F
:10126000C0030000000000000000000000000000BB
:1012700000008001C00380010000000000000000A9
:101280000000000000030006000C0018FE3FFE3FB7
:101290000600060006000600FF3FFF3F1E00F000AC
:1012A0008003001EFF3FFF3F1C03360336031C0371
:1012B0000000F61BFE1F18060C0C0C0C0C0C0C0C82
:1012C0001806FE1FF61B00000000000000000000D2
:1012D000F003F003F003F003000000000000000042
:1012E00000000000000000000000000000000000FE
:1012F00000000000000000000000F03FFC3F0E0373
:1013000007030303030303030303FF3FFF3F00003F
:101310000000FF3FFF3FC330C330C330C330C33092
:10132000C339831F030F00000000FF3FFF3FC3309E
:10133000C330C330C330E730FE39BC1F000F00009C
:101340000000FF3FFF3F0300030003000300030012
:10135000030003000300000000F0F0FFFC3F0E302C
:1013600007300330033003300330FF3FFFFF00F04E
:101370000000FF3FFF3FC330C330C330C330C33032
:10138000C3300330033000000F3C3E1FF807E0017C
:10139000C000FF3FFF3FC000E001F8071E1F073CF1
:1013A00000000C0C0E1C0738C330C330C330C330F0
:1013B000C330E7397E1F3C0E0000FF3FFF3F001C9B
:1013C0000007C003F00038000E00FF3FFF3F0000A1
:1013D0000000FF3FFF3F001C0007C603F30038007A
:1013E0000E00FF3FFF3F00000000FF3FFF3FC00037
:1013F000E001F00338071C0E0E1C07380330000014
:101400000000F03FFC3F0E00070003000300030054
:101410000300FF3FFF3F00000000FF3FFF3F1E00B3
:101420007800E001E00178001E00FF3FFF3F000070
:101430000000FF3FFF3FC000C000C000C000C00070
:10144000C000FF3FFF3F00000000F003FC0F0E1C38
:1014500007380330033007380E1CFC0FF003000080
:101460000000FF3FFF3F03000300030003000300F1
:101470000300FF3FFF3F00000000FF3FFF3F8301ED
:101480008301830183018301C701FE007C0000000A
:101490000000F003FC0F0E1C07380330033003304C
:1014A00007380E1C0C0C00000000000003000300B5
:1014B0000300FF3FFF3F03000300030000000000A4
:1014C00000007F18FF38C030C030C030C030C0309E
:1014D000C038FF1FFF0700000000F803FC070C06E0
:1014E0000C06FF3FFF3F0C060C06FC07F80300004C
:1014F000000003300F3C1C0E3003E001E00130031C
:101500001C0E0F3C033000000000FF3FFF3F003087
:101510000030003000300030FF3FFFFF00F00000DF
:1015200000007F00FF00C000C000C000C000C0007D
:10153000C000FF3FFF3F00000000FF3FFF3F0030C3
:101540000030FF3FFF3F00300030FF3FFF3F000013
:101550000000FF3FFF3F00300030FF3FFF3F003003
:101560000030FF3FFFFF00F00F000F000300FF3FC0
:10157000FF3F603060306030E038C01F800F0000F7
:101580000000FF3FFF3F60306030E038C01F800F39
:101590000000FF3FFF3F00000000FF3FFF3F6030C3
:1015A0006030603060306030E038C01F800F000075
:1015B00000000C0C0E1C0738C330C330C330C738D2
:1015C000CE1CFC0FF0030000FF3FFF3FC000F00304
:1015D000FC0F0E1C0738033007380E1CFC0FF003FD
:1015E00000007C30FE38C71D830F8307830383010F
:1015F0008301FF3FFF3F00000000001C403E6033BE
:1016000060336033603360336033E03FC03F0000DD
:101610000000F01FF83F9831D830D830D830D8309B
:10162000D8398C1F000F000000000000E03FE03FB1
:101630006032603260326032E03FC01D0000000066
:1016400000000000E03FE03F6000600060006000DC
:101650006000600000000000000000F080FFC03F5C
:101660006030603060306030E03FE0FF00F000004C
:101670000000800FC01FE03B603360336033603395
:101680006033C013800100006030E038C01F800765
:101690000003E03FE03F00038007C01FE0386030F8
:1016A000000000008008C018603060326032603294
:1016B000C01F800D0000000000000000E03FE03F80
:1016C0000018000C000600038001E03FE03F00002E
:1016D00000000000E03FE03F0018000C18060C037B
:1016E0008001E03FE03F000000000000E03FE03FFD
:1016F00000038007C00FE01C6038003000000000CD
:1017000000000000803FC03F60006000600060009B
:10171000E03FE03F000000000000E03FE03FE0006D
:10172000C00100030003C001E000E03FE03F000013
:1017300000000000E03FE03F000600060006000653
:101740000006E03FE03F00000000800FC01FE038CF
:101750006030603060306030E038C01F800F0000C3
:1017600000000000E03FE03F6000600060006000BB
:101770006000E03FE03F00000000E0FFE0FF600CA1
:101780006018601860186018E01CC00F8007000027
:101790000000800FC01FE038603060306030603083
:1017A0006030C01880080000000000006000600089
:1017B0006000E03FE03F600060006000000000006B
:1017C000000000006000E08180E7007E001E8007CE
:1017D000E0016000000000000000801FC03FC0303A
:1017E000C030E0FFE0FFC030C030C03F801F0000CD
:1017F00000006030E038C01D800F0007800FC01D62
:10180000E03860300000000000000000E03FE03FF2
:101810000030003000300030E03FE0FF00F000001A
:1018200000000000E003E0070006000600060006D6
:10183000E03FE03F000000000000E03FE03F0030FC
:101840000030E03FE03F00300030E03FE03F00008C
:101850000000E03FE03F00300030E03FE03F00307C
:101860000030E03FE0FF00F00000E000E00060003A
:10187000E03FE03F003300330033003F001E000034
:101880000000E03FE03F003300330033003F001E24
:101890000000E03FE03F000000000000E03FE03FCC
:1018A0000033003300330033003F001E000000000F
:1018B00000008008C0186030603060336033603BE7
:1018C000C01F800F000000000000E03FE03F000369
:1018D000800FC01FE0386030E038C01F800F00006C
:1018E00000000000C031E03B601E600E6006600238
:1018F000E03FE03F000000000000000000000000AA
:101900000000000000000000FC0106035202C202B9
:10191000C20252020603FC01FC01FE03AE033E03B9
:101920003E03AE03FE03FC017800FC00F801F00367
:10193000F801FC007800000030007800FC00FE0197
:10194000FC00780030000000700070027C029E03F2
:101950009E037C0270027000300078027C02FE035D
:10196000FE037C027802300000006000F000F0000E
:10197000F000F00060000000FF0F9F0F0F0F0F0F2F
:101980000F0F0F0F9F0FFF0F00000000000000005F
:101990000000000000000000000000000000000047
:1019A0000000000000000000E001F0033A023A02EB
:1019B000EE03C6011E00000000009C00BE00E20312
:1019C000E203BE009C0000000000000000000000D8
:1019D00000000000000000000007FE07FE030A00F0
:1019E0000A008A03FE03FE016801F801F0009C036F
:1019F0009C03F000F8016801FE03FC01F800700090
:101A00007000200020000000200020007000700006
:101A1000F800FC01FE030000000088008C01FE03BA
:101A2000FE038C018800000000003E033E0300001E
:101A300000003E033E0300001C003E002200FE03A7
:101A4000FE030200FE03FE0300026606FE049A0483
:101A50009205F2076606040000000000FC03FC0388
:101A6000FC03FC0300000000000088048C05FE0756
:101A7000FE078C0588040000000008000C00FE032F
:101A8000FE030C0008000000000080008001FE033F
:101A9000FE03800180000000200020002000A8003C
:101AA000F80070002000000020007000F800A8007E
:101AB0002000200020000000F000F00080008000E6
:101AC000800080008000000020007000F8002000EE
:101AD0002000F800700020000003C003F003FC03A6
:101AE000F003C003000300000C003C00FC00FC03FA
:101AF000FC003C000C0000000000000000000000A2
:101B0000000000000000000000001C007E037E03B7
:101B10001C0000000000000000000E001E0000007D
:101B200000001E000E0000008800FE03FE03880077
:101B3000FE03FE038800000018013C012707270769
:101B4000E401C4000000000018039801C000600018
:101B50003003180300000000EC01FE0332027E0394
:101B6000EC01C00360020000000010001E000E0027
:101B7000000000000000000000007000F8008C0170
:101B800006030202000000000000020206038C01AE
:101B9000F8007000000000002000A800F8007000AD
:101BA0007000F800A8002000000020002000F800CD
:101BB000F8002000200000000000000400070003DF
:101BC0000003000000000000200020002000200092
:101BD000200020002000000000000000000300039F
:101BE000000300000000000000038001C00060004E
:101BF000300018000C000000FC01FE030202FA0293
:101C00000202FE03FC01000008020802FC03FE03BE
:101C100000020002000000000C038E03C2026202F8
:101C20003E031C03000000000401060322022202FE
:101C3000FE03DC01000000006000700058004C0250
:101C4000FE03FE03400200003E013E032202220288
:101C5000E203C20100000000F801FC032602220298
:101C6000E203C001000000000E000E008203C20368
:101C700062003E001E000000DC01FE033202620230
:101C8000FE03DC01000000001C003E022203E20310
:101C9000FE003C00000000000000000098019801D8
:101CA000980100000000000000000000980598075F
:101CB000980300000000000020007000D8008C0194
:101CC0000603020200000000000050005000500017
:101CD00050005000500000000000020206038C017A
:101CE000D8007000200000000400060062037203A8
:101CF0001E000C0000000000FC01FE030202720244
:101D000072027E027C000000F803FC0346004600DD
:101D1000FC03F803000000000202FE03FE0322029F
:101D20002202FE03DC010000F800FC0106030202AF
:101D300002028E038C0100000202FE03FE03020277
:101D40000603FC01F80000000202FE03FE0322026B
:101D500022027202060300000202FE03FE032202B8
:101D6000220076000E000000F800FC0106030202CB
:101D70004202CE03CC030000FE03FE03200020003D
:101D8000FE03FE030000000000000202FE03FE034B
:101D90000202000000000000C001C00300020202B5
:101DA000FE03FE01020000000202FE03FE0320000B
:101DB000F800DE03060300000202FE03FE03020237
:101DC00000028003C0030000FE03FE031C00380075
:101DD0001C00FE03FE030000FE03FE03380070003B
:101DE000E000FE03FE030000F800FC01060302020F
:101DF0000603FC01F80000000202FE03FE032202BB
:101E000022003E001C000000F800FC0106018205D3
:101E1000C607FC07F80400000202FE03FE032200CE
:101E20006200FE039C0300009C01BE0322026202CA
:101E3000CE038C010000000006000202FE03FE0338
:101E40000202060000000000FE01FE030002000284
:101E5000FE03FE0100000000FE00FE01000300037F
:101E6000FE01FE00000000007E00FE038003600013
:101E70008003FE037E0000008E03DE03700070000E
:101E8000DE038E03000000001E003E02E003E003BC
:101E90003E021E00000000000E03C603E2023A02EA
:101EA0001E0206038603000000000000FE03FE037E
:101EB00002020202000000000C0018003000600066
:101EC000C0008001000300000000000002020202C6
:101ED000FE03FE030000000008000C0006000300E3
:101EE00006000C00080000000004000400040004C8
:101EF00000040004000400040000000003000700C8
:101F000004000000000000008001D00350025002D5
:101F1000F001E003000200000202FE03FE011002D5
:101F20001002F003E0010000E001F00310021002D3
:101F30003003200100000000E001F0031002120253
:101F4000FE01FE0300020000E001F0035002500217
:101F500070036001000000002002FC03FE03220267
:101F60002600040000000000E004F00D1009100934
:101F7000E00FF007100000000202FE03FE03200045
:101F80001000F003E0030000000010021002F6034E
:101F9000F6030002000200000006000E1008100800
:101FA000F60FF607000000000202FE03FE034000E9
:101FB000E000B00310030000000002020202FE0372
:101FC000FE03000200020000F003F0031000F00125
:101FD0001000F003E0030000F003F0031000100015
:101FE000F003E00300000000E001F0031002100223
:101FF000F003E001000000001008F00FE00F100AED
:102000001002F003E0010000E001F0031002100AEA
:10201000E00FF00F100800001002F003F003400280
:102020003000700060000000200170035002900238
:10203000B0032001000000001000F801FC031002B2
:102040001003100100000000F001F0030002000284
:10205000F001F00300020000F000F00100030003B3
:10206000F001F00000000000F000F0030003C000E9
:102070000003F003F000000010023003E001C00094
:10208000E0013003100200000008F008F009000D24
:102090000007F003F00000003003900390025002AC
:1020A000700230030000000020007000DC018E038D
:1020B0000202020200000000000000000000DE0337
:1020C000DE03000000000000020202028E03DC01B9
:1020D00070002000000000000C000E00020006004E
:1020E0000C0008000E000200C001E00130011801E0
:1020F0003001E001C001000000000000000000000D
:1021000000000000000000000000000000000000CF
:102110000000000000000000000010001E000E0083
:1021200000000000000000000000000000000000AF
:10213000000000000000000000000E001E00000073
:1021400000001E000E000000000000009801980131
:102150009801000000000000200020002000FF0F78
:10216000FF0F2000200020009000900090009F0FA3
:102170009F0F900090009000000000000000000001
:10218000000000000000000018039801C00060007B
:1021900030031803000000000000000000000000F1
:1021A000000000000000000020007000D8008C013A
:1021B0000603020200000000000000000000000012
:1021C000000000000000000000000000000000000F
:1021D00000000000000000000000000000000000FF
:1021E00000000000000000000000000000000000EF
:1021F00000000000000000000000000000000000DF
:102200000000000000000000000010001E000E0092
:102210000000000000000000000010001E000E0082
:10222000000000000000000000000E001E00000082
:1022300000001E000E00000000000E001E00000046
:1022400000001E000E00000000006000F000F00022
:10225000F000F000600000002000200020002000BE
:10226000200020002000000020002000200020008E
:1022700020002000200000000000000000000000FE
:10228000000000000000000006000202FE03FE0342
:102290000202060000000000000000000000000034
:1022A00000000000000000000000020206038C0194
:1022B000D8007000200000000000000000000000B6
:1022C000000000000000000000000000000000000E
:1022D00000000000000000000000000000000000FE
:1022E00000000000000000000000000000000000EE
:1022F00000000000000000000000000000000000DE
:10230000000000000000000000003C017C034102CE
:102310004102FC03FC0100000008F008F009040D74
:102320000407F003F00000000000000000000000BF
:102330000000000000000000000044007C002800B5
:1023400028007C00440000000000000000000000A5
:102350000000000000000000000000000000FF0F6F
:10236000FF0F00000000000000026606FE049A0451
:102370009205F207660604000202FF03FF03220231
:102380002302730206030000E001F00310021002B2
:102390003003200100000000F800FC0126032202A7
:1023A00002028E038C01000020007000D8008C0116
:1023B0000603020200000000200020002000E00FC1
:1023C000E00F00000000000020002000200020009E
:1023D00020002000200000000202FE03FE03220075
:1023E0006200FE039C03000003000302FC03FC03E5
:1023F000030203000000000000001C003E00220059
:1024000022003E001C000000000020002000F80018
:10241000F800200020000000000000000000000084
:1024200000000000000000000000000000000000AC
:10243000000000000000000000000000000000009C
:1024400000000000000000007000F000800080002C
:10245000F003F003000000001C003E002200FE0319
:10246000FE030200FE03FE03000000000000200047
:102470002000000000000000E001F60350025002BE
:102480007603600100000000FE03FE0330006000E0
:10249000FE03FE0366000000E001F003500250025C
:1024A00030032001000000000000020206038C013E
:1024B000D8007000200000000000000000000000B4
:1024C000000000000000000000000000000000000C
:1024D00000000000000000000000000000000000FC
:1024E0000000000000000000000006000602F003EB
:1024F000F003060206000000F803FC034600460055
:10250000FC03F803000000000202FE03FE031202B7
:102510001202F203E60100000202FE03FE032202A1
:102520002202FE03DC0100000202FE03FE0302029F
:10253000020002000E0000000006FC07FE0302027B
:102540000202FE03FE0700060202FE03FE03220251
:1025500022027202060300000603DC017000FE0383
:10256000FE037000DC01060300008C01060322025A
:102570002202FE03DC010000FE03FE03E000700007
:102580003800FE03FE030000FE03FE03E4007700B4
:102590003900FE03FE0300000202FE03FE032000DA
:1025A000F800DE03060300000002F803FC01060049
:1025B0000600FE03FE030000FE03FE031C003800BD
:1025C0001C00FE03FE030000FE03FE0320002000AB
:1025D0002000FE03FE030000F800FC0106030202D7
:1025E0000603FC01F8000000FE03FE0302000200E7
:1025F0000200FE03FE0300000202FE03FE032202AD
:1026000022003E001C000000F800FC01060302024C
:1026100002028E038C010000000006000202FE038D
:10262000FE0302020600000000003E017E0340029D
:102630004002FE03FE0100007800FC008400FE035F
:10264000FE038400FC0078008E03DE03700070003F
:10265000DE038E0300000000FE03FE030002000202
:10266000FE03FE07000600003E007E004000400022
:102670004000FE03FE030000FE03FE030002FE0313
:102680000002FE03FE030000FE03FE030002FE0341
:102690000002FE03FE0700060600FE03FE03200202
:1026A0002002E003C0010000FE03FE032002E0035D
:1026B000C001FE03FE030000FC03FC032002200215
:1026C0002002E003C00100008C018E0302022202FE
:1026D0002603FC01F8000000FE03FE033000FC01AD
:1026E000FE030202FE03FC0100029C03FE036200E3
:1026F0002200FE03FE0302028001D00350025002BA
:10270000F001E00300020000E001F003500250027B
:10271000D003980100000000F003F00350025002C3
:10272000F003A00100000000F003F003100010000F
:1027300010001000000000000006F007F003100277
:10274000F003F00700060000E001F0035002500221
:1027500070036001000000003003E001C000F003DE
:10276000C000E001300300002001100250025002BE
:10277000F003A00100000000F003F0038001C0009E
:10278000F003F00300000000F003F0038001CC0030
:10279000F603F00300000000F003F0034000E00047
:1027A000B00310020000000000028003E0003000CF
:1027B000F003F00300000000F003F0032000C0006D
:1027C0002000F003F0030000F003F003400040009D
:1027D000F003F00300000000E001F003100210021B
:1027E000F003E00100000000F003F003100010000F
:1027F000F003F00300000000F00FF00F10021002D1
:10280000F003E00100000000E001F00310021002FC
:10281000300320010000000010001000F003F0035E
:1028200010001000000000000000F004F00D00098E
:102830000009F00FF0070000E000F0011001F807B8
:102840001001F001E000000010023003E001C000C0
:10285000E001300310020000F003F0030002000268
:10286000F003F007000600007000F0008000800018
:10287000F003F00300000000F003F0030002F00397
:102880000002F003F0030000F003F0030002F00385
:102890000002F003F00700063000F003F0034002EE
:1028A0004002C00380010000F003F0034002C003B7
:1028B0008001F003F0030000F003F0034002400247
:1028C000C0038001000000002001300350025002CC
:1028D000F003E00100000000F003F003E001F0036A
:1028E0001002F003E00100006002F003900190008C
:1028F000F003F003000000000000000000000000F2
:102900007E8195B1B195817E7EFFEBCFCFEBFF7ECF
:102910000E1F3F7E3F1F0E00081C3E7F3E1C08001E
:10292000383A9FFF9F3A38001038BCFFBC3810007F
:102930000000183C3C180000FFFFE7C3C3E7FFFF9F
:102940000000000000000000000000000000000087
:1029500070F88888FD7F070F004E5FF1F15F4E0031
:102960000000000000000000C0FF7F0505657F3FFC
:10297000995A3CE7E73C5A997F3E3E1C1C080800E8
:1029800008081C1C3E3E7F00002466FFFF662400F2
:10299000005F5F00005F5F00060F097F7F017F7FA0
:1029A000DABFA5A5FD59030200003C3C3C3C0000F9
:1029B0008094B6FFFFB694800004067F7F06040073
:1029C0000010307F7F3010000808082A3E1C0800E5
:1029D000081C3E2A080808003C3C2020202020003B
:1029E000081C3E08083E1C0830383C3E3E3C38304F
:1029F000060E1E3E3E1E0E060000000000000000F7
:102A000000065F5F060000000007070007070000E0
:102A1000147F7F147F7F1400242E6B6B3A1200000A
:102A2000466630180C666200307A4F5D377A48008F
:102A30000407030000000000001C3E63410000008A
:102A40000041633E1C000000082A3E1C1C3E2A0870
:102A500008083E3E0808000000A0E06000000000FA
:102A60000808080808080000000060600000000076
:102A70006030180C060301003E7F594D7F3E000078
:102A800042427F7F40400000627359496F660000F8
:102A9000226349497F360000181C16137F7F1000FF
:102AA000276745457D3900003C7E4B497930000061
:102AB000036371190F070000367F49497F36000014
:102AC000064F49693F1E000000006C6C00000000CA
:102AD00000A0EC6C00000000081C36634100000000
:102AE0001414141414140000004163361C08000070
:102AF000020351590F0600003E7F415D5D1F1E001D
:102B00007C7E13137E7C0000417F7F49497F360025
:102B10001C3E634141632200417F7F41637F1C0073
:102B2000417F7F495D416300417F7F491D01030073
:102B30001C3E6341517372007F7F08087F7F000055
:102B400000417F7F41000000307040417F3F010025
:102B5000417F7F081C776300417F7F4140607000A8
:102B60007F7F060C067F7F007F7F060C187F7F002B
:102B70001C3E6341633E1C00417F7F49090F0600F4
:102B80001E3F21717F5E0000417F7F19396F460033
:102B900026674D597B32000003417F7F41030000CF
:102BA0007F7F40407F7F00001F3F60603F1F00002D
:102BB0007F7F3018307F7F0063771C081C776300AD
:102BC000074F78784F0700006773594D47637100CE
:102BD000007F7F41410000000103060C18306000B7
:102BE0000041417F7F000000080C0603060C08002E
:102BF00040404040404040400000030704000000C7
:102C0000207454543C784000413F7F44447C380059
:102C1000387C44446C280000307848493F7F4000AD
:102C2000387C54545C180000487E7F490302000041
:102C300098BCA4A4F87C0400417F7F08047C780041
:102C400000447D7D4000000040C484FD7D00000004
:102C5000417F7F10386C440000417F7F40000000BE
:102C60007C7C0C180C7C78007C7C04047C78000054
:102C7000387C44447C38000084FCF8A4243C1800D0
:102C8000183C24A4F8FC8400447C78441C18000000
:102C9000485C54547424000000043E7F4424000027
:102CA0003C7C40403C7C40001C3C60603C1C000084
:102CB0003C7C6030607C3C00446C3810386C4400D4
:102CC0009CBCA0A0FC7C00004C64745C4C640000C4
:102CD000FF818181818181FFFF81BDBDBDBD81FFFC
:102CE000013179797D7F7D3111111110101038106B
:102CF0003E081C1C7C3E1E1E1E1C1818181C0E0EA6
:102D0000F00804020151F1F1FDF1F1711A0C08F023
:102D10000F1024749C8E9F9F9F9F9F9E4020100F9A
:102D200000006C6C00000000101010FFFF1010106D
:102D3000141414FFFF14141400000000000000001D
:102D4000466630180C6662000000000000000000BB
:102D5000081C366341000000000000000000000075
:102D60000000000000000000000000000000000063
:102D70000000000000000000000000000000000053
:102D80000407030000000000040703000000000027
:102D900000070700070700000007070007070000FB
:102DA0000000183C3C18000008080808080800004B
:102DB00008080808080800000000000000000000E3
:102DC00003417F7F4103000000000000000000007D
:102DD000004163361C0800000000000000000000F5
:102DE00000000000000000000000000000000000E3
:102DF00000000000000000000000000000000000D3
:102E0000266E4849487E3E001FBFA0A3A0FF7F005A
:102E100000000000000000005A7E2424247E5A0096
:102E20000000000000000000000000FFFF000000A4
:102E3000DABFA5A5FD590302427F7F4A4B436600D6
:102E4000387C44446C2800001C3E6B4949632200D6
:102E5000081C366341000000101010F0F000000064
:102E60000808080808080000417F7F19396F4600EC
:102E700001417E7E4101000000060F090F0600009F
:102E800008083E3E080800000000000000000000A6
:102E90000000000000000000000000000000000032
:102EA0000C1C1010107C7C00060F097F7F017F7FB7
:102EB0000000001010000000397D54545D1900001E
:102EC0007F7E0C187F7F0900387C5454446C2800A6
:102ED000004163361C0800000000000000000000F4
:102EE00000000000000000000000000000000000E2
:102EF00001457C7C410100007C7E1311117F7F0025
:102F0000417F7F49497B3300417F7F49497F3600BC
:102F1000417F7F4101030300C0FC7E43417FFFC02E
:102F2000417F7F495D41630063771C7F1C776300AD
:102F3000226349497F3600007F7F30180C7F7F0075
:102F40007F7F30190C7F7F00417F7F081C776300F3
:102F5000407E3E03017F7F007F7F060C067F7F005F
:102F60007F7F0808087F7F001C3E6341633E1C0092
:102F70007F7F0101017F7F00417F7F49090F0600AC
:102F80001C3E63414163220003417F7F41030000F7
:102F9000276F4848487F3F000E1F517F511F0E008A
:102FA00063771C081C7763007F7F40407FFFC00071
:102FB000070F0808087F7F007F7F407F407F7F00EA
:102FC0007F7F407F407FFFC007037F7F48783000CE
:102FD0007F7F4878307F7F00017F7F4948783000CD
:102FE000226349496B3E1C007F7F087F417F3E0082
:102FF000466F3919197F7F00207454543C78400083
:10300000347E4A4A4A7B3100447C7C54547C2800FC
:10301000447C7C44040C0C00C0F87C447CFCC00064
:10302000387C54545C180000446C387C386C440084
:10303000286C4454547C28007C7C6030187C7C00D4
:103040007E7E6031187E7E00447C7C10386C4400AB
:1030500040787C04047C7C007C7C1838187C7C00E4
:103060007C7C1010107C7C00387C44447C38000050
:103070007C7C0404047C7C0084FCFCA4243C1800BC
:10308000387C44446C280000000C447C7C440C00D8
:103090001CBCA0A0A0FC7C00183CA4FCA43C180014
:1030A000446C3810386C44007C7C40407CFCC00090
:1030B0000C1C1010107C7C007C7C407C407C7C00D4
:1030C0007C7C407C407CFCC00C047C7C50702000EC
:1030D0007C7C5070207C7C00047C7C5450702000F0
:1030E000286C4454547C38007C7C107C447C380030
:1030F000487C3414147C7C000000000000000000B8
:10310000003E4551453E0000003E6B6F6B3E0000A7
:10311000001C3E7C3E1C000000183C7E3C18000059
:103120000030367F3630000000185C7E5C180000EE
:103130000000181800000000FFFFE7E7FFFF000095
:10314000000000000000000000000000000000007F
:103150000030484A360E0000000629792906000092
:10316000000000000000000000607E0A353F000003
:10317000002A1C361C2A000000007F3E1C080000AC
:1031800000081C3E7F0000000014367F361400004B
:1031900000005F005F0000000006097F017F000063
:1031A00000224D5559220000003C3C3C3C000000F0
:1031B0000014B6FFB61400000004067F06040000E9
:1031C0000010307F301000000008083E1C0800008E
:1031D00000081C3E08080000007840404040000005
:1031E00000083E083E08000000303C3F3C30000034
:1031F00000030F3F0F03000000000000000000006C
:103200000000065F0600000000070300070300003F
:1032100000247E247E24000000242B6A120000007B
:103220000063130864630000003649562050000014
:10323000000007030000000000003E410000000005
:103240000000413E0000000000083E1C3E08000057
:103250000008083E080800000000E06000000000D0
:103260000008080808080000000060600000000076
:103270000020100804020000003E5149453E0000B5
:103280000000427F400000000062514949460000B2
:103290000022494949360000001814127F1000002E
:1032A000002F494949310000003C4A49493000009B
:1032B0000001710905030000003649494936000044
:1032C00000064949291E000000006C6C0000000047
:1032D0000000EC6C00000000000814224100000017
:1032E00000242424242400000000412214080000AB
:1032F0000002015909060000003E415D551E000014
:10330000007E1111117E0000007F494949360000FE
:10331000003E414141220000007F4141413E00000A
:10332000007F494949410000007F09090901000067
:10333000003E4149497A0000007F0808087F0000EC
:103340000000417F4100000000304040403F00004D
:10335000007F081422410000007F404040400000F0
:10336000007F0204027F0000007F0204087F00004B
:10337000003E4141413E0000007F0909090600006E
:10338000003E4151215E0000007F090919660000DE
:1033900000264949493200000001017F0101000077
:1033A000003F4040403F0000001F2040201F000021
:1033B000003F403C403F00000063140814630000DD
:1033C000000708700807000000714945430000002D
:1033D00000007F41410000000002040810200000AE
:1033E000000041417F0000000004020102040000CF
:1033F0004040404040400000000003070000000043
:103400000020545454780000007F444444380000A5
:10341000003844444428000000384444447F0000FD
:10342000003854545408000000087E0909000000C8
:103430000018A4A4A47C0000007F0404780000000D
:103440000000007D40000000004080847D000000FE
:10345000007F1028440000000000007F40000000B2
:10346000007C041804780000007C0404780000004C
:10347000003844444438000000FC44444438000010
:103480000038444444FC0000004478440408000030
:10349000000854545420000000043E44240000005E
:1034A000003C40207C000000001C2040201C00004C
:1034B000003C6030603C0000006C10106C000000AC
:1034C000009CA0603C000000006454544C000000CC
:1034D00000083E41410000000000007700000000AD
:1034E000000041413E08000000020102010000000E
:1034F000003C2623263C00000000000000000000E5
:1035000000000000000000000000070300000000B1
:103510000000000000000000000703000703000097
:1035200000006C6C00000000080808FF080800009C
:103530000A0A0AFF0A0A000000000000000000005A
:103540000063130864630000000000000000000036
:1035500000081422410000000000000000000000EC
:10356000000000000000000000000000000000005B
:10357000000000000000000000000000000000004B
:103580000000070300000000000007030000000027
:103590000007030007030000000703000703000003
:1035A00000001818000000000008080808080000C3
:1035B00000080808080800000000000000000000E3
:1035C0000001017F01010000000000000000000078
:1035D000000041221408000000000000000000006C
:1035E00000000000000000000000000000000000DB
:1035F00000000000000000000000000000000000CB
:103600000027484B483F0000009CA1613C0000009F
:1036100000000000000000002A3E14143E2A0000B2
:103620000000000000000000000000FF000000009B
:1036300000224D5559220000007E4B4A4B420000AB
:103640000038444444280000003E4949412200001B
:103650000008142241000000080808F800000000DB
:103660000008080808080000007F09091966000022
:103670000001407E4001000000060909060000002C
:103680000008083E080800000000000000000000DC
:10369000000000000000000000000000000000002A
:1036A000000C1010107C00000006097F017F000054
:1036B00000000800000000000038555455080000C4
:1036C0007F06187F1313000000385454442800006C
:1036D000000041221408000000000000000000006B
:1036E00000000000000000000000000000000000DA
:1036F0000000017C41000000007E1111117E0000DD
:10370000007F494949310000007F4949493600009E
:10371000007F010101010000603E21213F600000A7
:10372000007F4949494100000077087F0877000081
:103730002249494936000000007F2010087F000020
:10374000007F2013087F0000007F08142241000042
:1037500000407E01017F0000007F0204027F000024
:10376000007F0808087F0000003E4141413E000004
:10377000007F0101017F0000007F090909060000A8
:10378000003E4141412200000001017F0101000093
:1037900000274848483F0000000E117F110E00002E
:1037A0000063140814630000007F40407FC00000E5
:1037B00000070808087F0000007F407F407F00006E
:1037C000007F407F40FF000003017F484830000039
:1037D000007F4848307F0000007F484848300000A4
:1037E00000224149493E0000007F083E413E000062
:1037F00000661909097F0000002054545478000025
:10380000003C4A4A4A310000007C545454280000CD
:10381000007C04040C000000603824243C6000009C
:103820000038545454080000006C107C106C0000E8
:103830000028445454280000007C2010087C00001C
:10384000007C20120A7C0000007C1028440000004C
:10385000403804047C000000007C0810087C000054
:10386000007C1010107C00000038444444380000F4
:10387000007C0404047C000000FC44444438000044
:1038800000384444442800000004047C0404000080
:10389000009CA0603C0000000018247C241800005C
:1038A000006C10106C000000007C40407CC00000E8
:1038B000000C1010107C0000007C407C407C00005C
:1038C000007C407C40FC00000C047C505020000038
:1038D000007C5050207C0000007C505050200000A4
:1038E0000028445454380000007C1038443800004C
:1038F00000483414147C000000000000000E150E77
:10390000000E1B0E000E1C0E000C1E0C00161F16C7
:1039100000141F14000004003F3F3B3F0000000064
:103920000000000000181A06000A1D0A000000002E
:103930000004130E000E1B0E001F0E0400040E1FC9
:10394000000A1F0A00170017061F011F00161B0D93
:10395000000C0C00002A3F2A00021F0200081F086A
:1039600004040E04040E0404000C0808000E040EE7
:10397000000C0E0C00060E060000000000001700F0
:1039800000030003001F0A1F00143F0A000904126D
:10399000001A151E00030100000E110000110E0098
:1039A00000150E1500040E0400301000000404047D
:1039B0000000100000180403001E110F00121F1059
:1039C000001915120011150A0006041F0017150929
:1039D000000E150800011D07000A150A0002150E49
:1039E000000014000030140000040A110014141424
:1039F00000110A0400011502001F1117001E051E08
:103A0000001F150A000E1111001F110E001F1511C5
:103A1000001F0501000E111D001F041F00111F11C2
:103A20000008100F001F041B001F1010001F061FAE
:103A3000001F021F000E110E001F0502000E191EAE
:103A4000001F051A0016150D00011F01001F101F91
:103A5000000F100F001F0C1F001B041B00031C0392
:103A600000191513001F11000003041800111F0096
:103A70000002010220202020000103000018141C75
:103A8000001F1408000814140008141F000C1C1454
:103A900000041E05002C243C001F041800001D001B
:103AA00000203D00001F081400001F00001C0C1C1B
:103AB000001C041800081408003C14080008143CFA
:103AC000001C040000101C0400041E14001C101C28
:103AD000000C100C001C181C00140814002C100CF6
:103AE00000041C1000041F1100001F0000111F041F
:103AF00002010201000C0A0C00000000000000009E
:103B00000003010000000000000300030000140097
:103B100004043F040A0A3B0A0000000000090412E2
:103B20000000000000040A11000000000000000076
:103B30000000000000000000000000000003010081
:103B40000003010000030003000300030000040061
:103B500000040404000404040000000000011F012C
:103B60000000000000110A04000000000000000036
:103B700000000000000000000000000017150F000A
:103B80002C120C00000000001E121E00000000009D
:103B900000003F0000161B0D1F1511000008141433
:103BA0000E15150000040A1104043C00000404046E
:103BB000001F051A011E01000002050200040E0488
:103BC0000000000000000000000000000C081C00C5
:103BD000061F011F000004000D1C15001F0E1F0012
:103BE000081C140000110A0400000000000000007E
:103BF00000000000041804001E051E001F15090027
:103C00001F150A001F010100180F18001F151100D1
:103C10001B0E1B0011151F001F0C1F001F0D1F0086
:103C20001F0619001E011F001F021F001F041F0096
:103C30000E110E001F011F001F0502000E111100C2
:103C4000011F010017140F000E1B0E001B041B00A8
:103C50001F101F3007041F001F1C1F001F1C1F30D8
:103C6000011F1C001F141F001F14080011150E0057
:103C70001F0E1B0E1A051F0008141C001C1C14002C
:103C80001C1C18001C040400180C18000C1C140048
:103C9000141C1400141C1C001C081C001C091C0013
:103CA0001C08140018041C001C181C001C081C0014
:103CB000081408001C041C003C140800081414001C
:103CC000041C04002C100C001C341C0014081400EC
:103CD0001C101C300C081C001C181C001C181C306C
:103CE000041C18001C181C001C181800141C0800C8
:103CF0001C081C08140C1C000C940C370C94203964
:103D00000C9417370C94C7390C94AB350C94904332
:103D10000C9410380C94E3350C94653A0C94413AA9
:103D20000C94683D0C94D2380C945C360C94FB3C9B
:103D30000C94C7350C94163B0C94B63A0C94A83CE2
:103D40000C94E2340C94FD3C0C9430350C94B83750
:103D50000C9482380C9495390C94DD360C94BC3854
:103D60000C94273A0C948F350C9468430C94583774
:103D70000C9401350C94FB390C94163A0C94FA38D7
:103D80000C94B7360C9449380C94343A0C94E63AB7
:103D90000C940A390C9428370C948B3A0C945B35AC
:103DA0000C941A3A11241FBECFEFD1E2DEBFCDBF73
:103DB00000E00CBF19E0A0E0B2E0E6EBF7E900E0BC
:103DC0000BBF02C007900D92A236B107D9F717E1D9
:103DD000A2E6B9E001C01D92A733B107E1F70E9446
:103DE0004F470C94D94B0C940000EF92FF920F9325
:103DF0001F93CF93DF938B01080F191FCFEFDFEFD6
:103E000080179107A9F07C012FEFE21AF20A0E94B5
:103E1000084B3C2F2227ED2FFF27E827EE0FFF1F2F
:103E2000EE57FD4FC081D181C227D327C701E8CF0C
:103E3000CE01DF91CF911F910F91FF90EF900895E8
:103E4000680F791FEFEFFFEF8617970791F03E2F6E
:103E50002227DC014D91CD01EF2FFF27E427EE0F44
:103E6000FF1FEE57FD4F0190F081E02DE227F32771
:103E7000EBCFCF0108950C9422450C940F450C9480
:103E800024474F925F926F927F928F929F92AF9250
:103E9000BF92CF92DF92EF92FF920F931F93CF9337
:103EA000DF93F82E962E642E522EC42FD0E0C81B1E
:103EB000D109C22ED12CC61AD108D7FF03C088243D
:103EC0008A9402C088248394D7FE03C077247A940E
:103ED00002C077247394D7FF03C0D195C195D1094F
:103EE000D7FE03C0D194C194D108CC0FDD1FCC0CF8
:103EF000DD1CA801692D8F2D0E942447CC16DD06FC
:103F0000F4F4CE01959587955601A81AB90A55245F
:103F1000539444244394F61481F1B7FC03C0970CE6
:103F2000AC1ABD0AF80CAC0CBD1CE1105424552091
:103F300091F3A801692D8F2D0E942447ECCFC60173
:103F4000959587955E01A81AB90A6624639444245E
:103F50004394951491F0B7FC03C0F80CAC18BD085D
:103F6000970CAC0EBD1EE1106424662091F3A801ED
:103F7000692D8F2D0E942447ECCFDF91CF911F91A7
:103F80000F91FF90EF90DF90CF90BF90AF909F90F8
:103F90008F907F906F905F904F900895AF92BF92F7
:103FA000CF92DF92EF92FF920F931F93CF93DF9305
:103FB000C82EB62EF42EA22E482F0E94411F2A2D65
:103FC0004F2D6A2D8C2D0E94411F2A2D4F2D6B2DB8
:103FD0008F2D0E94411F2B2D4F2D6B2D8C2D0E945C
:103FE000411FDF91CF911F910F91FF90EF90DF90D4
:103FF000CF90BF90AF900895CF92DF92EF92FF9253
:104000000F931F93CF93DF931F92CDB7DEB7F62E9A
:10401000E42EC82EEC1470F0DF2C2D1548F0A8010A
:104020006D2D8C2D29830E942447D3942981F5CFAF
:10403000C394F0CF0F90DF91CF911F910F91FF901C
:10404000EF90DF90CF9008957F928F929F92AF92E2
:10405000BF92CF92DF92EF92FF920F931F93CF9375
:10406000DF93A82E962E842E7901E801D12C888129
:10407000D81638F5EC818D818E9EF0011124D89EE2
:10408000E00DF11D11240A811B810E0F1F1FC12C91
:104090007D2C7A0C8981C81690F48C2D877021F4C0
:1040A000F801B4900F5F1F4FB0FE06C0A7016C2D42
:1040B000690D872D0E942447B694C394EBCFD39407
:1040C000D6CFDF91CF911F910F91FF90EF90DF90AE
:1040D000CF90BF90AF909F908F907F900895AF92B8
:1040E000BF92CF92DF92EF92FF920F931F93CF93E5
:1040F000DF93B62E6901E80191E0E916F10441F081
:10410000E2E0EE16F104B1F0EF2801F5A82E1EC092
:10411000FA0101900020E9F73197E41BF50B988133
:104120009E9F90019F9F300D112436952795A82EB4
:10413000A21A0CC0FA0101900020E9F73197E41BA4
:10414000F50B9881A82E9E9FA01811247A01F701E3
:1041500041917F01442349F08E0196016B2D8A2DF8
:104160000E9424208881A80EF2CFDF91CF911F9169
:104170000F91FF90EF90DF90CF90BF90AF90089598
:104180000E940D4634E03093D60C26E02093D70CE5
:1041900088EF98E39093D90C8093D80C3093DA0C85
:1041A00031E03093DB0C2093D00C28E02093D10C2D
:1041B00088EF90E39093D30C8093D20C2093D40C8F
:1041C0003093D50C2093CA0C2093CB0C88EF98E247
:1041D0009093CD0C8093CC0C2093CE0C3093CF0CCD
:1041E0002093C40C3CE03093C50C88EF98E1909389
:1041F000C70C8093C60C80E18093C80C22E020930A
:10420000C90C3093BE0C8093BF0C88EF90E0909364
:10421000C10C8093C00C88E18093C20C2093C30C26
:1042200008951F920F920FB60F9211240BB60F92A2
:104230002F933F934F935F936F937F938F939F93AE
:10424000AF93BF93EF93FF938091E00C482F50E022
:1042500020919A09332727FD30954217530704F51B
:104260000E94D3214091E00CE42FF0E0EE0FFF1FFD
:10427000E759F64F80819181909387008093860063
:104280008091DE0C9091DF0C20813181820F931F91
:104290009093DF0C8093DE0C4F5F4093E00C14C0D2
:1042A00080E49CE92091DE0C3091DF0C821B930BA3
:1042B00090938700809386001092DF0C1092DE0CA2
:1042C0001092E00C0E94FB22FF91EF91BF91AF9101
:1042D0009F918F917F916F915F914F913F912F911E
:1042E0000F900BBE0F900FBE0F901F9018951F924E
:1042F0000F920FB60F9211240BB60F922F933F938C
:104300004F935F936F937F938F939F93AF93BF93DD
:10431000EF93FF93CF93DF931F92CDB7DEB78091DA
:10432000620990916309A0916409B09165090196B1
:10433000A11DB11D8093620990936309A093640944
:10434000B09365099091DD0C8091DC0C992321F0EC
:104350008F5F8093DC0C11C091E09093DD0C109284
:10436000DC0C89830E942F2A89810E94712A0E9475
:104370002B2B0E94072A1092DD0C0F90DF91CF911A
:10438000FF91EF91BF91AF919F918F917F916F912D
:104390005F914F913F912F910F900BBE0F900FBEE9
:1043A0000F901F9018954F925F926F927F92AF92ED
:1043B000BF92CF92DF92EF92FF920F931F93CF9312
:1043C000DF93893008F068C0E82EEE0CFF08F70193
:1043D000E759F64F1182108292EEC92E9CE0D92E39
:1043E0002091680936EF2303E00111249BE0890244
:1043F000C00DD11D1124CB57D64F00E010E05F0156
:1044000024E6422E512C612C712CFE01E00FF11F8D
:10441000E055FF4FA081AA2399F0F6012081318158
:10442000BB27A7FDB0950E94C547A30192010E943A
:104430004E48F50180819181820F931F9183808383
:104440000F5F1F4FF2E0CF0ED11C0B301105E9F6C4
:10445000F701E759F64F80819181209182043091D4
:104460008304820F931F918380832091860430916F
:1044700087048217930714F4318320838091840486
:1044800090918504F701E759F64F20813181821719
:10449000930714F491838083DF91CF911F910F9143
:1044A000FF90EF90DF90CF90BF90AF907F906F9094
:1044B0005F904F9008958F929F92AF92BF92CF924C
:1044C000DF92EF92FF920F931F93CF93DF93EB0155
:1044D0007A012115310509F45FC010160CF05CC09B
:1044E0004C0197FF02C0812C912C8C169D0624F064
:1044F0004E0141E0841A9108112707FD10950150E3
:104500001109CE01B8010E941848FB01809EC0012C
:10451000819E900D909E900D1124BE010E9418481E
:10452000462F6901C60ED11CD6012C91B701260376
:10453000C001279F900D11240AE010E0B8010E94ED
:104540001848EB01AA2497FCA094BA2C242F30E041
:10455000DF010E94DC47861A970AA80AB90AD60129
:1045600011962C91A7012403C001259F900D1124C1
:10457000B8010E9418486C1B7D0BDB01A50194015A
:104580000E94EE479F01442737FD4095542F0E941B
:104590004E482C0F3D1F01C09C01C901DF91CF91F6
:1045A0001F910F91FF90EF90DF90CF90BF90AF9051
:1045B0009F908F9008956623E9F0FC014081262F9B
:1045C000332727FD3095240F311D47FD3A951616E8
:1045D00024F42136310524F00895203A3F4F54F059
:1045E000640FFC0160838CED95E00E94EA2981E074
:1045F0008093670908952F923F924F925F926F9236
:104600007F928F929F92AF92BF92CF92DF92EF9262
:10461000FF920F931F93CF93DF93CDB7DEB76297CF
:104620000FB6F894DEBF0FBECDBF369903C081E050
:1046300080936809379B02C03699FDC1379903C042
:1046400082E0809368098091090183FB882780F9C3
:1046500091E089279091090195FF8260909109016D
:1046600096FF84609091090194FF88609091090100
:1046700097FF8061909B8062919B80644F9B8068D4
:104680009091E10C891719F08093E10C29C08823DF
:1046900039F100E010E026EF302F8091E10C90E03E
:1046A000002E02C0959587950A94E2F780FF13C00B
:1046B00000FF02C06FEF01C061E0369540916809CC
:1046C0004203C0011124830F911D8357954F2A8BFC
:1046D0000E94DB222A890F5F1F4F08301105E1F687
:1046E000329904C081E08093660902C01092660985
:1046F00069E7A62E69E0B62E72E8C72E7CE0D72EB9
:10470000EEE0EE2EEDE0FE2E06EA1CE0712CFAE063
:104710008F2E912C872D0E940F44D5018D939D9350
:104720005D01F601419151916F019C01241B350BF4
:10473000D801481759072CF41C964D915C911D9790
:1047400002C04D915C91249FC001259F900D349F24
:10475000900D1124B4010E941848F7017183608301
:104760007394F2E0EF0EF11C0E5F1F4F26E0721201
:10477000D1CF8091100D9091110D9093F90C8093F1
:10478000F80C80910E0D90910F0D9093FB0C80937F
:10479000FA0C8091120D9091130D9093FD0C809363
:1047A000FC0C8091140D9091150D9093FF0C80934B
:1047B000FE0C8091160D9091170D9093010D809332
:1047C000000D069906C088EE93E09093030D809348
:1047D000020D069B02C0359931C1359906C088E1AA
:1047E0009CEF9093030D8093020D349903C088EEE3
:1047F00093E002C088E19CEF9093050D8093040D37
:10480000339903C088EE93E002C088E19CEF909357
:10481000070D8093060D2091680936EF2303C00130
:104820001124DC01AB57B64F4D01FD01E257FF4F9C
:10483000E081EE0FFF0BE850F34F20813181309380
:10484000090D2093080DFD01E556FF4FE081EE0FA5
:10485000FF0BE850F34F2081318130930B0D2093F3
:104860000A0D28EE33E030930D0D20930C0DFE0160
:1048700031962BE0DF011D922A95E9F726B131E050
:10488000269521702327298326B1217023272A8387
:1048900022B322FB222720F923272C83B09166091B
:1048A000BF8732EEE32E3CE0F32E48EF242E4CE09F
:1048B000342EFE87ED87A12CB12CC12CD12CFC010C
:1048C000E455F64FF98BE88B54E6452E512C612CBC
:1048D000712CCC868BEF8C0D833018F0FC2DFA30C8
:1048E00021F4D1018D919C9110C0D1018D919C91A9
:1048F00007E0288939892A0D3B1D44E650E060ED28
:1049000077E088519C4F0E945B22F701918380835E
:10491000AD85BE858D91BE87AD8784010A0D1B1DB7
:10492000882361F0F1018081918197FF04C0D80153
:1049300095962C910EC0F80124A10BC0D1018D9148
:104940009C9197FF03C0F80123A103C0D801929660
:104950002C9130E040E050E024363105410551050E
:1049600061F0F701A081B1810E94EE47A30192019D
:104970000E944E48D7012D933C93BC85B23099F4E8
:10498000EF85EE2399F0D80195962C9130E0A0E5C3
:10499000BBEF0E94CD47A30192010E944E48F70150
:1049A0003183208303C0FC85F43080F4F401EC0DE6
:1049B000FD1DE85FFE4F2081220F330BD7018D9143
:1049C0009C911197820F931F8D939C93F80141A1A5
:1049D000D7012D913C914203C001439F900D1124BA
:1049E000F701819391937F01FFEFCF1ADF0A2DE04A
:1049F000A20EB11C32E0230E311C8BE0C816D1048C
:104A000009F067CF62960FB6F894DEBF0FBECDBF38
:104A1000DF91CF911F910F91FF90EF90DF90CF909A
:104A2000BF90AF909F908F907F906F905F904F90CE
:104A30003F902F9008951092680900CE1092030DB8
:104A40001092020DCACE2091800C21110C94644466
:104A5000089580916709882301F18091800C81304D
:104A6000E1F41092670988EE93E00E9423252FEF6E
:104A700085EA9EE0215080409040E1F700C00000B0
:104A800080E090E00E9423252FEF85EA9EE02150F0
:104A900080409040E1F700C0000008956DEF7FE096
:104AA00081E090E00E94F51EBC018EEF9FE00C9427
:104AB0002E4BCF93DF938EEF9FE00E94104BEC01C3
:104AC0006DEF7FE081E090E00E94F51E21E0C817C5
:104AD000D90709F020E0822FDF91CF9108958AED68
:104AE0009EE00E94084B91E0811190E0892F08958B
:104AF000F89441E450E068ED7EE08DE79CE00E9490
:104B0000164B0E944E2578940895F89428EF32E0D1
:104B1000482F4203B001439F700D11246050704034
:104B200048EF52E085E899E00E94F84A80919509A3
:104B3000909196090E9429440E94042B789408952C
:104B400041E450E068ED7EE08DE79CE00E94F84A89
:104B50008091810C0C9485259F92AF92BF92CF9249
:104B6000DF92EF92FF920F931F93CF93DF9385E82D
:104B7000E82E89E0F82E00E010E096EF992E28EF5D
:104B8000A22E22E0B22EC0E0D0E0909E6001919E65
:104B9000D00C1124F701EC0FFD1FE85FFE4FCE0192
:104BA0008C0D9D1D4091810CB50146039001479FDE
:104BB000300D1124820F931F6081885F9E4F0E94E9
:104BC000204B2196C430D10529F70F5F1F4F76EF98
:104BD000E70EF11C03301105B1F6DF91CF911F9163
:104BE0000F91FF90EF90DF90CF90BF90AF909F908C
:104BF0000C944E25F89428EF32E0482F4203B00180
:104C0000439F700D11246050704048EF52E085E8DA
:104C100099E00E94164B0E944E2578940895482FE3
:104C2000F89428EF32E04203C001439F900D112415
:104C3000805090406203E001639FD00D1124C0506A
:104C4000D0408C010F5F1F4F0E94084B7E019FEFE9
:104C5000E91AF90A682FCE010E94204BE701C8012A
:104C6000F0CF2F923F924F925F926F927F928F92EE
:104C70009F92AF92BF92CF92DF92EF92FF920F93EB
:104C80001F93CF93DF93CDB7DEB7C450D3400FB699
:104C9000F894DEBF0FBECDBF682E9E012F5F3F4F41
:104CA00088E894E0CD5FDC4F99838883C350D3407C
:104CB00000E010E0690144E6742E56E0252E312C08
:104CC000F901B69640E0DF01159791E09C934230E0
:104CD00011F484E601C082E3DF0114978C93423023
:104CE00011F484E601C082E3DF0113978C93DF01A6
:104CF00012977C92DF0111977C92812C912CE12CF0
:104D0000F12C5F01A6E2AA1AB10825014E0C5F1C26
:104D1000C401B1010E9418486456D20197966C9361
:104D2000BFEFEB1AFB0A88EC880E911C97E0E9169E
:104D3000F10459F740834F5F3D964B3021F640E038
:104D400050E080E090E0BA01620F731FFB01E80FB2
:104D5000F91FE055FF4F108201968B309105B1F796
:104D6000455F5F4F4835510561F780E090E0F901FC
:104D7000E80FF91FE055FF4F70820C9680369105C1
:104D8000B1F7F901E85FFE4F1082F901E75FFE4FCE
:104D90001082F901E65FFE4F1082F901E55FFE4FD8
:104DA0001082CD5FDC4FA881B981C350D340ED9113
:104DB000FD91CD5FDC4FB983A883C350D34040E061
:104DC00050E0642F7F017191C901840F951FDC01B0
:104DD00056967C93D7018C91882331F04F5F5F4FBB
:104DE0004B30510571F76BE0B6EFB09FC001B19F3A
:104DF000900D11248C0D9D1D6B3030F4FC01E60FDD
:104E0000F11D168A6F5FF8CF0F5F1F4F2A503F4F7B
:104E10000330110509F054CF772467FC7094C30167
:104E200001969F938F938CEA96E09F938F938E01C8
:104E300007501D4F1F930F930E94CE48F801019019
:104E40000020E9F73197E01BF10B0F900F900F90C6
:104E50000F900F900F90ED3010F42E2F01C02CE02A
:104E6000FE013396D801CF013A2F301B321718F4C8
:104E70003D913193F9CFDC01A20FB11D1C922F5F40
:104E80002D30C8F381E090E09A8B898B188A1C8AB8
:104E90001B8A1D8A86E08E8B88EF92E09A83898335
:104EA000689EB001699E700D789E700D112460504F
:104EB000704048EF52E0C6010E94164BCC5FDC4FB9
:104EC0000FB6F894DEBF0FBECDBFDF91CF911F911B
:104ED0000F91FF90EF90DF90CF90BF90AF909F9099
:104EE0008F907F906F905F904F903F902F9008959C
:104EF000AF92BF92CF92DF92EF92FF920F931F93E8
:104F0000CF93DF93F894C0E0D0E026EF382F320340
:104F10007001112478EFA72E72E0B72E6203800192
:104F200011242091810CCE018E0D9F1DA50124031B
:104F30006001259FD00C11248C0D9D1D8A5E9F4F12
:104F40000E94084B9E01200F311F2C0D3D1D682F24
:104F5000C9018A5E9F4F0E94204B2196CB30D1051C
:104F600001F74091810C28EF32E04203C001439FDA
:104F7000900D1124E80EF91E97012A5E3F4F79012A
:104F8000080F191F0A5E1F4FC0E0D0E0C7018C0F49
:104F90009D1F0E94084B682FC8018C0F9D1F0E9407
:104FA000204B2196C63FD10589F70E944E25789463
:104FB000DF91CF911F910F91FF90EF90DF90CF90F5
:104FC000BF90AF9008957F928F929F92AF92BF92C1
:104FD000CF92DF92EF92FF920F931F93CF93DF93C5
:104FE000CDB7DEB76E970FB6F894DEBF0FBECDBF5C
:104FF000F8940EE81CE099E7E92E99E0F92ED12CFF
:105000008D2D0E940F44F701819391937F01F80148
:10501000819391938F0193878287D394F6E0DF1277
:10502000EFCF0E943D1FE12CF12C04EC1CE021E0AD
:1050300030E045EB56E060E48EE10E946F200E9474
:105040003B1F2FEF83ED90E3215080409040E1F72C
:1050500000C00000019B02C0079987C0E12CF12C21
:1050600000E02AEC3CE041EC56E064EC7CE08DECA6
:1050700096E00E94BB2D019BFECF079BFCCF0199C0
:1050800014C00DE71CE0F8EDEF2EFEE0FF2EA2EBC2
:105090008A2EACE09A2EB6EACB2EBCE0DB2E712C29
:1050A00080E1A82E87E2B82E03C0079BEACFE7CFA6
:1050B000872D0E940F44F80196838583BC01C701A8
:1050C00005960E942E4BF80161897289C7014196AD
:1050D0000E942E4BF801658D768DC7014D960E947A
:1050E0002E4BF801658D768D85819681681B790B35
:1050F000C5010E940448F401619371934F01C701F7
:10510000C5960E942E4BF80165817681818992892E
:10511000681B790BC5010E940448F60161937193E5
:105120006F01C70189960E942E4B73940E5F1F4F2B
:10513000F2E0EF0EF11C26E07212BACF0E944E256B
:1051400078946E960FB6F894DEBF0FBECDBFDF9198
:10515000CF911F910F91FF90EF90DF90CF90BF9074
:10516000AF909F908F907F9008950E943D1F0EE812
:105170001CE0E9E7EE2EE9E0FE2ED12C8D2D0E94F9
:105180000F44F701819391937F01F80120813181D0
:105190008217930714F491838083F8012485358561
:1051A0002817390714F495878487D3940E5F1F4F0F
:1051B000F6E0DF12E3CF8091900C9091910C9A83EE
:1051C000898380918E0C90918F0C9C838B8380912E
:1051D000920C9091930C9E838D838091940C90916E
:1051E000950C98878F838091960C9091970C9A8755
:1051F000898780919C0C90919D0C9C878B878091D6
:105200009A0C90919B0C9E878D8780919E0C90911B
:105210009F0C988B8F878091A00C9091A10C9A8BFA
:10522000898B8091A20C9091A30C9C8B8B8B80918D
:105230007B0990917C099E8B8D8B8091790990914F
:105240007A09988F8F8B80917D0990917E099A8F32
:10525000898F80917F09909180099C8F8B8F80919D
:105260008109909182099E8F8D8F20E0AE014B5E67
:105270005F4FBE01655F7F4FCE0101960E94D93D11
:105280000E943B1FE7CEEF92FF920F931F93CF93A5
:10529000DF9381E08093800C0E943D1F8091C50CBC
:1052A00060E870E0681B710977FF02C06F5F7F4F95
:1052B00075956795D62FD81B8091C40CCBEF8C9F2A
:1052C000802D1124E12CF12C04EC1CE021E030E0D5
:1052D0004FEE56E06D2F805B0E946F206091C50CF1
:1052E0006D0F2091C40C3C2F3203C0011124805655
:1052F0009F4F97FD019695958795E12CF12C04EC35
:105300001CE021E030E040E059E00E946F208091F5
:10531000C50C282F220F280F2D0F622F681BE12CA0
:1053200001E010E04FE980E00E94CE1F0E943B1F89
:1053300030E2F32EC0E0C093810C8C2F0E94312606
:105340008091C50C282F220F280F2D0F622F681B6C
:1053500001E010E04F2D80E00E94FC1F0E943B1FE7
:10536000CF5F80E2F80EC53031F79FEF29E638E1D4
:10537000915020403040E1F700C0000061E470E04F
:1053800088ED9EE00E942E4B60E08CED9EE00E9436
:10539000204B61E08BED9EE00E94204B0E94E327B2
:1053A00061E08AED9EE00E94204BDF91CF911F913A
:1053B0000F91FF90EF900C944E252091620930914F
:1053C00063094091640950916509A4E1B0E00E942D
:1053D000E3470895FC0181E080932A0D2091620942
:1053E000309163094091640950916509A4E1B0E0EE
:1053F0000E94E3476E0F7F1F811D911D6093260D54
:105400007093270D8093280D9093290D08950F9385
:105410001F9380912A0D8823F9F020916209309121
:1054200063094091640950916509A4E1B0E00E94CC
:10543000E3470091260D1091270D2091280D309102
:10544000290D601771078207930730F010922A0D1B
:105450001F910F910C94AC251F910F91089580B16D
:1054600085FB882780F991E08927029B8260039B56
:105470008460009B8860049B8061019B10C0079B37
:105480000EC090911C0D891719F080931C0D089582
:105490009091250D891729F08093250D089580623C
:1054A000F0CF0895009771F48091250D8111FCCF04
:1054B0000895EFE9FFE03197F1F700C00000019790
:1054C000009721F02091250D2111F3CF089590919F
:1054D000250D9823E1F38091250D08958091250DE8
:1054E00008959091200D992309F457C090E00196FA
:1054F0002091210D3091220D820F931F4091990927
:10550000823391052CF49093220D8093210D12C0CB
:10551000C2979093220D8093210D8091230D90913D
:10552000240D41FF02C0019701C001969093240D04
:105530008093230D40FF14C08091230D9091240D82
:1055400020919709309198098217930749F4892B84
:1055500039F081E080931F0D10921B0D10921A0DEF
:1055600041FF1BC08091230D9091240D892BA9F43C
:105570001092200D80919709909198099093240D95
:105580008093230D1092220D1092210D81E08093C3
:105590001F0D10921B0D10921A0D80911F0D882364
:1055A00009F180911A0D843111F0811110C010920F
:1055B0001A0D80911B0D8F5F80931B0D80FD03C022
:1055C00088EE93E002C080E090E00E942325809165
:1055D0001B0D893111F410921F0D80911A0D8F5FF0
:1055E00080931A0D08958091230D9091240D0895B4
:1055F0008091210D9091220D24E1AC01249FC001E6
:10560000259F900D112408958091990981FF09C06B
:1056100080919709909198099093240D8093230D80
:1056200004C01092240D1092230D1092220D10929E
:10563000210D1092200D10921F0D089581E080938E
:10564000200D08951092200D089580911F0D08954A
:1056500010921F0D0895209183093091840945E02F
:10566000429FC001439F900D112490931E0D809383
:105670001D0D089580911D0D90911E0D08950F939D
:10568000FC0171836083DB010D900020E9F7119725
:10569000A61BB70BA28354834383368325830783DA
:1056A0000F9108950F931F93FC01718360835383BF
:1056B000428324831683058317821F910F910895D7
:1056C0008091C50C0895FC0184810895FC018281BC
:1056D0009381F7E06F9F800D911D11240895FC01C7
:1056E000858196810895FC0187810895FC01678377
:1056F0000895EF92FF920F931F93CF93DF9300E0F3
:1057000010E02091CB0C4FE960E080E00E94FC1F8C
:105710008091810C992787FD909501969F938F9397
:1057200088E698E09F938F93CBE2DDE0DF93CF9301
:105730000E94CE48E12CF12C0AEC1CE021E030E084
:10574000AE0160E080E00E946F20809194090F908C
:105750000F900F900F900F900F90813001F51F92D6
:105760008EE78F931F928DE78F938EE097E09F9344
:105770008F93DF93CF930E94CE488091CA0C21E093
:1057800030E0AE0160E0880F0E946F208DB79EB7B9
:1057900008960FB6F8949EBF0FBE8DBF26C081112C
:1057A00024C01F9280E88F931F928FE78F938EE023
:1057B00097E09F938F93DF93CF930E94CE48809181
:1057C000CA0CE12CF12C0AEC1CE021E030E04BE2A9
:1057D0005DE060E0880F0E946F208DB79EB708964D
:1057E0000FB6F8949EBF0FBE8DBFEE24E394F12C4C
:1057F0000AEC1CE021E030E047E859E060E080E599
:105800000E946F204091680926EF4203A0011124F5
:105810004556564F92E0E92EF12C00ED1CE021E0B8
:1058200030E060E080EA0E946F20DF91CF911F910D
:105830000F91FF90EF900895EF92FF920F931F93B7
:10584000CF93DF937C01CBECDCE068812091C50C29
:10585000260F01E010E04FE980E00E94FC1FF701F5
:1058600040815181EE24E394F12C04EC1CE020E013
:1058700030E0688180E50E946F20DF91CF911F9119
:105880000F91FF90EF900895EF92FF920F931F9367
:10589000CF93DF93EC010091C50C8091CB0C080FE6
:1058A0001CE7101BCE010E94AE47EC81819FC00116
:1058B0001124F0E0BF010E940448812F8695F62E46
:1058C000861708F4F82EAF81BF0161507109D2E04C
:1058D000D00FB0E0A617B70781F0412F50E04F1965
:1058E00051094A9FC0014B9F900D5A9F900D112462
:1058F0000E940448CD2FC60F02C0CEE7CF1901E0A9
:1059000010E02FE742E06D2F80E00E94FC1FE12CA9
:1059100000E010E02FE742E06D2F80E00E94CE1FF4
:105920002C2F2F0D01E010E042E06C2F80E00E9450
:10593000FC1FDF91CF911F910F91FF90EF90089581
:105940004F925F926F927F928F929F92AF92BF928F
:10595000CF92DF92EF92FF920F931F93CF93DF933B
:10596000CDB7DEB7A0970FB6F894DEBF0FBECDBFA0
:105970006C01462E0E943D1FC6010E941C2CC601D0
:105980000E94792BC6010E94442C642C712C842C1B
:10599000912CC6010E94AE479301280F311D82163B
:1059A00093060CF065C0D6011296AD90BC9013978B
:1059B000B7E04B9EA00CB11C1124D6011596ED91B9
:1059C000FC91169721815090CB0C8091C50C580EFC
:1059D0005394539486189708289D500C11241796B9
:1059E0008C9188248394912C841102C0812C912C59
:1059F000841111C0250D01E010E04EE9652D85E010
:105A00000E94FC1FF6010581168194014EE3652D6D
:105A100085E00E942420D60115960D911C911697C1
:105A2000F50140815181D8018C91E12CF12C940138
:105A3000652D8B5F0E946F20D5011496ED91FC912E
:105A40001597309799F016966C91CE01019619959D
:105A5000F6010581168132E0E32EF12C9401AE01AE
:105A60004F5F5F4F652D8EE90E946F2043948FCF6B
:105A70000E943B1FA0960FB6F894DEBF0FBECDBFAD
:105A8000DF91CF911F910F91FF90EF90DF90CF901A
:105A9000BF90AF909F908F907F906F905F904F904E
:105AA0000895FF920F931F93CF93DF93EC0110E0C3
:105AB000612FCE010E94A02C80E090E00E94522A2B
:105AC0008FEF0E94672A082F80FF03C08F8181110A
:105AD00038C001FF0AC08F81482F50E02C8130E090
